{
  "contractName": "Election",
  "abi": [
    {
      "inputs": [],
      "stateMutability": "nonpayable",
      "type": "constructor"
    },
    {
      "inputs": [],
      "name": "chairperson",
      "outputs": [
        {
          "internalType": "address",
          "name": "",
          "type": "address"
        }
      ],
      "stateMutability": "view",
      "type": "function",
      "constant": true
    },
    {
      "inputs": [
        {
          "internalType": "address",
          "name": "toVoter",
          "type": "address"
        },
        {
          "internalType": "address",
          "name": "registerer",
          "type": "address"
        }
      ],
      "name": "Register",
      "outputs": [],
      "stateMutability": "nonpayable",
      "type": "function"
    },
    {
      "inputs": [
        {
          "internalType": "uint8",
          "name": "toProposal",
          "type": "uint8"
        },
        {
          "internalType": "address",
          "name": "voterAddr",
          "type": "address"
        }
      ],
      "name": "Vote",
      "outputs": [],
      "stateMutability": "nonpayable",
      "type": "function"
    },
    {
      "inputs": [],
      "name": "Winner",
      "outputs": [
        {
          "internalType": "uint256",
          "name": "_winningProposal",
          "type": "uint256"
        }
      ],
      "stateMutability": "view",
      "type": "function",
      "constant": true
    }
  ],
  "bytecode": "0x608060405234801561001057600080fd5b50336000806101000a81548173ffffffffffffffffffffffffffffffffffffffff021916908373ffffffffffffffffffffffffffffffffffffffff16021790555060018060008060009054906101000a900473ffffffffffffffffffffffffffffffffffffffff1673ffffffffffffffffffffffffffffffffffffffff1673ffffffffffffffffffffffffffffffffffffffff168152602001908152602001600020600001819055506000600160008060009054906101000a900473ffffffffffffffffffffffffffffffffffffffff1673ffffffffffffffffffffffffffffffffffffffff1673ffffffffffffffffffffffffffffffffffffffff16815260200190815260200160002060010160016101000a81548160ff021916908315150217905550610662806101446000396000f3fe608060405234801561001057600080fd5b5060043610610069576000357c0100000000000000000000000000000000000000000000000000000000900480632e4176cf1461006e57806357ecf93b1461008c57806398ada70a146100a8578063b2b98ed2146100c4575b600080fd5b6100766100e2565b6040516100839190610419565b60405180910390f35b6100a660048036038101906100a1919061049e565b610106565b005b6100c260048036038101906100bd91906104de565b61021d565b005b6100cc610374565b6040516100d99190610537565b60405180910390f35b60008054906101000a900473ffffffffffffffffffffffffffffffffffffffff1681565b6000600160008373ffffffffffffffffffffffffffffffffffffffff1673ffffffffffffffffffffffffffffffffffffffff168152602001908152602001600020604051806060016040529081600082015481526020016001820160009054906101000a900460ff1660ff1660ff1681526020016001820160019054906101000a900460ff16151515158152505090508060400151806101a9575060048360ff16115b806101b8575060008160000151145b156101c257600080fd5b600181604001901515908115158152505082816020019060ff16908160ff1681525050806000015160028460ff166004811061020157610200610552565b5b01600082825461021191906105b0565b92505081905550505050565b600160008373ffffffffffffffffffffffffffffffffffffffff1673ffffffffffffffffffffffffffffffffffffffff16815260200190815260200160002060010160019054906101000a900460ff16806102c4575060008054906101000a900473ffffffffffffffffffffffffffffffffffffffff1673ffffffffffffffffffffffffffffffffffffffff168173ffffffffffffffffffffffffffffffffffffffff1614155b156102ce57600080fd5b6000600160008473ffffffffffffffffffffffffffffffffffffffff1673ffffffffffffffffffffffffffffffffffffffff16815260200190815260200160002060010160016101000a81548160ff02191690831515021790555060018060008473ffffffffffffffffffffffffffffffffffffffff1673ffffffffffffffffffffffffffffffffffffffff168152602001908152602001600020600001819055505050565b6000806000905060005b60048110156103d357816002826004811061039c5761039b610552565b5b015411156103c057600281600481106103b8576103b7610552565b5b015491508092505b80806103cb906105e4565b91505061037e565b505090565b600073ffffffffffffffffffffffffffffffffffffffff82169050919050565b6000610403826103d8565b9050919050565b610413816103f8565b82525050565b600060208201905061042e600083018461040a565b92915050565b600080fd5b600060ff82169050919050565b61044f81610439565b811461045a57600080fd5b50565b60008135905061046c81610446565b92915050565b61047b816103f8565b811461048657600080fd5b50565b60008135905061049881610472565b92915050565b600080604083850312156104b5576104b4610434565b5b60006104c38582860161045d565b92505060206104d485828601610489565b9150509250929050565b600080604083850312156104f5576104f4610434565b5b600061050385828601610489565b925050602061051485828601610489565b9150509250929050565b6000819050919050565b6105318161051e565b82525050565b600060208201905061054c6000830184610528565b92915050565b7f4e487b7100000000000000000000000000000000000000000000000000000000600052603260045260246000fd5b7f4e487b7100000000000000000000000000000000000000000000000000000000600052601160045260246000fd5b60006105bb8261051e565b91506105c68361051e565b92508282019050808211156105de576105dd610581565b5b92915050565b60006105ef8261051e565b91507fffffffffffffffffffffffffffffffffffffffffffffffffffffffffffffffff820361062157610620610581565b5b60018201905091905056fea2646970667358221220d03cef6153811e672c5445c2e158e10ab84232b3917c875aa8805db84d5a465764736f6c63430008150033",
  "immutableReferences": {},
  "source": "pragma solidity ^ 0.8.21 ;\r\n\r\ncontract Election{\r\n    struct Voter{\r\n        uint weight ;\r\n        uint8 vote ;\r\n        bool isVoted ;\r\n    }\r\n\r\n    address public chairperson ;\r\n    mapping(address => Voter) voters ;\r\n    uint[4] proposals ;\r\n\r\n    // modifier onlyOwner(){\r\n    //     require(msg.sender == chairperson);\r\n    //     _;\r\n    // }\r\n\r\n    constructor() public{\r\n        chairperson = msg.sender ;\r\n        voters[chairperson].weight = 1 ;\r\n        voters[chairperson].isVoted = false ;\r\n    }\r\n\r\n    function Register(address toVoter,address registerer) public {\r\n        if(voters[toVoter].isVoted || registerer != chairperson) revert() ;\r\n        voters[toVoter].isVoted = false ;\r\n        voters[toVoter].weight = 1 ;\r\n    }\r\n\r\n    function Vote(uint8 toProposal, address voterAddr) public{\r\n        Voter memory sender = voters[voterAddr] ;\r\n        if(sender.isVoted || toProposal>proposals.length || sender.weight == 0) revert() ;\r\n        sender.isVoted = true ;\r\n        sender.vote = toProposal ;\r\n        proposals[toProposal] += sender.weight ;\r\n    }\r\n\r\n    function Winner() public view returns(uint _winningProposal){\r\n        uint winningVoteCount = 0 ;\r\n        for(uint prop=0;prop<4;prop++){\r\n            if(proposals[prop] > winningVoteCount){\r\n                winningVoteCount = proposals[prop] ;\r\n                _winningProposal = prop ;\r\n            }\r\n        }\r\n    }\r\n}",
  "sourcePath": "C:\\Users\\admin\\miniprojet\\contracts\\Election.sol",
  "compiler": {
    "name": "solc",
    "version": "0.8.21+commit.d9974bed.Emscripten.clang"
  },
  "schemaVersion": "3.4.16",
  "updatedAt": "2024-11-23T12:58:34.243Z",
  "networkType": "ethereum",
  "devdoc": {
    "kind": "dev",
    "methods": {},
    "version": 1
  },
  "userdoc": {
    "kind": "user",
    "methods": {},
    "version": 1
  }
}